{
  "contractName": "Election",
  "abi": [
    {
      "constant": true,
      "inputs": [],
      "name": "candidatesCount",
      "outputs": [
        {
          "name": "",
          "type": "uint256"
        }
      ],
      "payable": false,
      "stateMutability": "view",
      "type": "function"
    },
    {
      "constant": true,
      "inputs": [
        {
          "name": "",
          "type": "uint256"
        }
      ],
      "name": "candidates",
      "outputs": [
        {
          "name": "id",
          "type": "uint256"
        },
        {
          "name": "name",
          "type": "string"
        },
        {
          "name": "vPos",
          "type": "string"
        },
        {
          "name": "gender",
          "type": "string"
        },
        {
          "name": "PoS",
          "type": "string"
        },
        {
          "name": "manifesto",
          "type": "string"
        },
        {
          "name": "voteCount",
          "type": "uint256"
        }
      ],
      "payable": false,
      "stateMutability": "view",
      "type": "function"
    },
    {
      "inputs": [],
      "payable": false,
      "stateMutability": "nonpayable",
      "type": "constructor"
    },
    {
      "constant": false,
      "inputs": [
        {
          "name": "_name",
          "type": "string"
        },
        {
          "name": "_vPos",
          "type": "string"
        },
        {
          "name": "_gender",
          "type": "string"
        },
        {
          "name": "_PoS",
          "type": "string"
        },
        {
          "name": "_manifesto",
          "type": "string"
        }
      ],
      "name": "addCandidate",
      "outputs": [],
      "payable": false,
      "stateMutability": "nonpayable",
      "type": "function"
    },
    {
      "constant": false,
      "inputs": [
        {
          "name": "_candidateId",
          "type": "uint256"
        }
      ],
      "name": "incrementVoteCount",
      "outputs": [],
      "payable": false,
      "stateMutability": "nonpayable",
      "type": "function"
    }
  ],
  "bytecode": "0x60806040523480156200001157600080fd5b50620001606040805190810160405280600b81526020017f53616d75656c204b6f72690000000000000000000000000000000000000000008152506040805190810160405280600981526020017f507265736964656e7400000000000000000000000000000000000000000000008152506040805190810160405280600481526020017f4d616c65000000000000000000000000000000000000000000000000000000008152506040805190810160405280601081526020017f436f6d707574657220536369656e636500000000000000000000000000000000815250606060405190810160405280602481526020017f4920616d204120676f6f6420626f7920616e642049206e65656420796f75722081526020017f766f746500000000000000000000000000000000000000000000000000000000815250620002b4640100000000026401000000009004565b620002ae6040805190810160405280600b81526020017f436f6c6520426169646f650000000000000000000000000000000000000000008152506040805190810160405280600981526020017f507265736964656e7400000000000000000000000000000000000000000000008152506040805190810160405280600481526020017f4d616c65000000000000000000000000000000000000000000000000000000008152506040805190810160405280600381526020017f4c61770000000000000000000000000000000000000000000000000000000000815250606060405190810160405280602381526020017f4920616d20412062616420626f7920616e642049206e65656420796f7572207681526020017f6f74650000000000000000000000000000000000000000000000000000000000815250620002b4640100000000026401000000009004565b62000479565b60016000815480929190600101919050555060e06040519081016040528060015481526020018681526020018581526020018481526020018381526020018281526020016000815250600080600154815260200190815260200160002060008201518160000155602082015181600101908051906020019062000339929190620003ca565b50604082015181600201908051906020019062000358929190620003ca565b50606082015181600301908051906020019062000377929190620003ca565b50608082015181600401908051906020019062000396929190620003ca565b5060a0820151816005019080519060200190620003b5929190620003ca565b5060c082015181600601559050505050505050565b828054600181600116156101000203166002900490600052602060002090601f016020900481019282601f106200040d57805160ff19168380011785556200043e565b828001600101855582156200043e579182015b828111156200043d57825182559160200191906001019062000420565b5b5090506200044d919062000451565b5090565b6200047691905b808211156200047257600081600090555060010162000458565b5090565b90565b6109e980620004896000396000f300608060405260043610610062576000357c0100000000000000000000000000000000000000000000000000000000900463ffffffff1680632d35a8a2146100675780633477ee2e14610092578063945ddfb9146102f6578063f3b9e61c14610477575b600080fd5b34801561007357600080fd5b5061007c6104a4565b6040518082815260200191505060405180910390f35b34801561009e57600080fd5b506100bd600480360381019080803590602001909291905050506104aa565b60405180888152602001806020018060200180602001806020018060200187815260200186810386528c818151815260200191508051906020019080838360005b838110156101195780820151818401526020810190506100fe565b50505050905090810190601f1680156101465780820380516001836020036101000a031916815260200191505b5086810385528b818151815260200191508051906020019080838360005b8381101561017f578082015181840152602081019050610164565b50505050905090810190601f1680156101ac5780820380516001836020036101000a031916815260200191505b5086810384528a818151815260200191508051906020019080838360005b838110156101e55780820151818401526020810190506101ca565b50505050905090810190601f1680156102125780820380516001836020036101000a031916815260200191505b50868103835289818151815260200191508051906020019080838360005b8381101561024b578082015181840152602081019050610230565b50505050905090810190601f1680156102785780820380516001836020036101000a031916815260200191505b50868103825288818151815260200191508051906020019080838360005b838110156102b1578082015181840152602081019050610296565b50505050905090810190601f1680156102de5780820380516001836020036101000a031916815260200191505b509c5050505050505050505050505060405180910390f35b34801561030257600080fd5b50610475600480360381019080803590602001908201803590602001908080601f0160208091040260200160405190810160405280939291908181526020018383808284378201915050505050509192919290803590602001908201803590602001908080601f0160208091040260200160405190810160405280939291908181526020018383808284378201915050505050509192919290803590602001908201803590602001908080601f0160208091040260200160405190810160405280939291908181526020018383808284378201915050505050509192919290803590602001908201803590602001908080601f0160208091040260200160405190810160405280939291908181526020018383808284378201915050505050509192919290803590602001908201803590602001908080601f01602080910402602001604051908101604052809392919081815260200183838082843782019150505050505091929192905050506107e4565b005b34801561048357600080fd5b506104a2600480360381019080803590602001909291905050506108f0565b005b60015481565b6000602052806000526040600020600091509050806000015490806001018054600181600116156101000203166002900480601f01602080910402602001604051908101604052809291908181526020018280546001816001161561010002031660029004801561055c5780601f106105315761010080835404028352916020019161055c565b820191906000526020600020905b81548152906001019060200180831161053f57829003601f168201915b505050505090806002018054600181600116156101000203166002900480601f0160208091040260200160405190810160405280929190818152602001828054600181600116156101000203166002900480156105fa5780601f106105cf576101008083540402835291602001916105fa565b820191906000526020600020905b8154815290600101906020018083116105dd57829003601f168201915b505050505090806003018054600181600116156101000203166002900480601f0160208091040260200160405190810160405280929190818152602001828054600181600116156101000203166002900480156106985780601f1061066d57610100808354040283529160200191610698565b820191906000526020600020905b81548152906001019060200180831161067b57829003601f168201915b505050505090806004018054600181600116156101000203166002900480601f0160208091040260200160405190810160405280929190818152602001828054600181600116156101000203166002900480156107365780601f1061070b57610100808354040283529160200191610736565b820191906000526020600020905b81548152906001019060200180831161071957829003601f168201915b505050505090806005018054600181600116156101000203166002900480601f0160208091040260200160405190810160405280929190818152602001828054600181600116156101000203166002900480156107d45780601f106107a9576101008083540402835291602001916107d4565b820191906000526020600020905b8154815290600101906020018083116107b757829003601f168201915b5050505050908060060154905087565b60016000815480929190600101919050555060e060405190810160405280600154815260200186815260200185815260200184815260200183815260200182815260200160008152506000806001548152602001908152602001600020600082015181600001556020820151816001019080519060200190610867929190610918565b506040820151816002019080519060200190610884929190610918565b5060608201518160030190805190602001906108a1929190610918565b5060808201518160040190805190602001906108be929190610918565b5060a08201518160050190805190602001906108db929190610918565b5060c082015181600601559050505050505050565b6000808281526020019081526020016000206006016000815480929190600101919050555050565b828054600181600116156101000203166002900490600052602060002090601f016020900481019282601f1061095957805160ff1916838001178555610987565b82800160010185558215610987579182015b8281111561098657825182559160200191906001019061096b565b5b5090506109949190610998565b5090565b6109ba91905b808211156109b657600081600090555060010161099e565b5090565b905600a165627a7a72305820826b5098cd2efaf4cc0aac99cb5b4a7c4d9c36445f89906bf6a166bbcc8d53d10029",
  "source": "pragma solidity ^0.4.22;\n\ncontract Election {\n    // Model a Candidate\n    struct Candidate {\n        uint id;\n        string name;\n        string vPos;\n        string gender;\n        string PoS;\n        string manifesto;\n        uint voteCount;\n    }\n\n    // Store Candidates\n    // Fetch Candidate\n    mapping(uint => Candidate) public candidates;\n    // Store Candidates Count\n    uint public candidatesCount;\n\n\n    constructor () public {\n        addCandidate(\"Samuel Kori\", \"President\", \"Male\", \"Computer Science\", \"I am A good boy and I need your vote\");\n        addCandidate(\"Cole Baidoe\", \"President\", \"Male\", \"Law\", \"I am A bad boy and I need your vote\");    \n    }\n\n    function addCandidate (string memory _name, string memory _vPos, string memory _gender, string memory _PoS, string memory _manifesto) public {\n        candidatesCount ++;\n        candidates[candidatesCount] = Candidate(candidatesCount, _name, _vPos, _gender, _PoS, _manifesto, 0);\n    }\n    \n    function incrementVoteCount(uint _candidateId) public{\n        // update candidate vote Count\n        candidates[_candidateId].voteCount ++;\n    }\n\n}",
  "sourcePath": "/home/kori/Documents/sammy/CS Y2/Part 2/FYP/mywork/dapps/E-Voting/contracts/Election.sol",
  "compiler": {
    "name": "solc",
    "version": "0.4.24+commit.e67f0147.Emscripten.clang"
  },
  "schemaVersion": "2.0.1",
  "updatedAt": "2019-01-07T12:56:57.404Z"
}