{
  "contractName": "Election",
  "abi": [
    {
      "constant": true,
      "inputs": [],
      "name": "candidatesCount",
      "outputs": [
        {
          "name": "",
          "type": "uint256"
        }
      ],
      "payable": false,
      "stateMutability": "view",
      "type": "function",
      "signature": "0x2d35a8a2"
    },
    {
      "constant": true,
      "inputs": [
        {
          "name": "",
          "type": "uint256"
        }
      ],
      "name": "candidates",
      "outputs": [
        {
          "name": "id",
          "type": "uint256"
        },
        {
          "name": "name",
          "type": "string"
        },
        {
          "name": "vPos",
          "type": "string"
        },
        {
          "name": "gender",
          "type": "string"
        },
        {
          "name": "PoS",
          "type": "string"
        },
        {
          "name": "manifesto",
          "type": "string"
        },
        {
          "name": "voteCount",
          "type": "uint256"
        },
        {
          "name": "eName",
          "type": "string"
        }
      ],
      "payable": false,
      "stateMutability": "view",
      "type": "function",
      "signature": "0x3477ee2e"
    },
    {
      "constant": true,
      "inputs": [
        {
          "name": "",
          "type": "address"
        }
      ],
      "name": "voters",
      "outputs": [
        {
          "name": "",
          "type": "string"
        }
      ],
      "payable": false,
      "stateMutability": "view",
      "type": "function",
      "signature": "0xa3ec138d"
    },
    {
      "constant": true,
      "inputs": [],
      "name": "voteCount",
      "outputs": [
        {
          "name": "",
          "type": "uint256"
        }
      ],
      "payable": false,
      "stateMutability": "view",
      "type": "function",
      "signature": "0xc6384071"
    },
    {
      "inputs": [],
      "payable": false,
      "stateMutability": "nonpayable",
      "type": "constructor",
      "signature": "constructor"
    },
    {
      "anonymous": false,
      "inputs": [
        {
          "indexed": true,
          "name": "_candidateId",
          "type": "uint256"
        }
      ],
      "name": "votedEvent",
      "type": "event",
      "signature": "0xfff3c900d938d21d0990d786e819f29b8d05c1ef587b462b939609625b684b16"
    },
    {
      "constant": false,
      "inputs": [
        {
          "name": "_name",
          "type": "string"
        },
        {
          "name": "_vPos",
          "type": "string"
        },
        {
          "name": "_gender",
          "type": "string"
        },
        {
          "name": "_PoS",
          "type": "string"
        },
        {
          "name": "_manifesto",
          "type": "string"
        },
        {
          "name": "_eName",
          "type": "string"
        }
      ],
      "name": "addCandidate",
      "outputs": [],
      "payable": false,
      "stateMutability": "nonpayable",
      "type": "function",
      "signature": "0xbbdac323"
    },
    {
      "constant": false,
      "inputs": [
        {
          "name": "_candidateId",
          "type": "uint256"
        }
      ],
      "name": "incrementVoteCount",
      "outputs": [],
      "payable": false,
      "stateMutability": "nonpayable",
      "type": "function",
      "signature": "0xf3b9e61c"
    },
    {
      "constant": false,
      "inputs": [
        {
          "name": "_candidateId",
          "type": "uint256"
        },
        {
          "name": "_pos",
          "type": "string"
        }
      ],
      "name": "vote",
      "outputs": [],
      "payable": false,
      "stateMutability": "nonpayable",
      "type": "function",
      "signature": "0x24108475"
    }
  ],
  "bytecode": "0x60806040523480156200001157600080fd5b50620001966040805190810160405280600b81526020017f53616d75656c204b6f72690000000000000000000000000000000000000000008152506040805190810160405280600981526020017f507265736964656e7400000000000000000000000000000000000000000000008152506040805190810160405280600481526020017f4d616c65000000000000000000000000000000000000000000000000000000008152506040805190810160405280600281526020017f4353000000000000000000000000000000000000000000000000000000000000815250606060405190810160405280602481526020017f4920616d204120676f6f6420626f7920616e642049206e65656420796f75722081526020017f766f7465000000000000000000000000000000000000000000000000000000008152506040805190810160405280600c81526020017f4c656520456c656374696f6e000000000000000000000000000000000000000081525062000320640100000000026401000000009004565b6200031a6040805190810160405280600b81526020017f436f6c6520426169646f650000000000000000000000000000000000000000008152506040805190810160405280600981526020017f507265736964656e7400000000000000000000000000000000000000000000008152506040805190810160405280600481526020017f4d616c65000000000000000000000000000000000000000000000000000000008152506040805190810160405280600381526020017f4c41570000000000000000000000000000000000000000000000000000000000815250606060405190810160405280602381526020017f4920616d20412062616420626f7920616e642049206e65656420796f7572207681526020017f6f746500000000000000000000000000000000000000000000000000000000008152506040805190810160405280600c81526020017f4c656520456c656374696f6e000000000000000000000000000000000000000081525062000320640100000000026401000000009004565b6200050c565b60026000815480929190600101919050555061010060405190810160405280600254815260200187815260200186815260200185815260200184815260200183815260200160008152602001828152506000806002548152602001908152602001600020600082015181600001556020820151816001019080519060200190620003ac9291906200045d565b506040820151816002019080519060200190620003cb9291906200045d565b506060820151816003019080519060200190620003ea9291906200045d565b506080820151816004019080519060200190620004099291906200045d565b5060a0820151816005019080519060200190620004289291906200045d565b5060c0820151816006015560e0820151816007019080519060200190620004519291906200045d565b50905050505050505050565b828054600181600116156101000203166002900490600052602060002090601f016020900481019282601f10620004a057805160ff1916838001178555620004d1565b82800160010185558215620004d1579182015b82811115620004d0578251825591602001919060010190620004b3565b5b509050620004e09190620004e4565b5090565b6200050991905b8082111562000505576000816000905550600101620004eb565b5090565b90565b611149806200051c6000396000f3fe608060405260043610610083576000357c0100000000000000000000000000000000000000000000000000000000900463ffffffff16806324108475146100885780632d35a8a21461015a5780633477ee2e14610185578063a3ec138d14610463578063bbdac3231461052d578063c6384071146108e8578063f3b9e61c14610913575b600080fd5b34801561009457600080fd5b50610158600480360360408110156100ab57600080fd5b8101908080359060200190929190803590602001906401000000008111156100d257600080fd5b8201836020820111156100e457600080fd5b8035906020019184600183028401116401000000008311171561010657600080fd5b91908080601f016020809104026020016040519081016040528093929190818152602001838380828437600081840152601f19601f82011690508083019250505050505050919291929050505061094e565b005b34801561016657600080fd5b5061016f610a0b565b6040518082815260200191505060405180910390f35b34801561019157600080fd5b506101be600480360360208110156101a857600080fd5b8101908080359060200190929190505050610a11565b6040518089815260200180602001806020018060200180602001806020018881526020018060200187810387528e818151815260200191508051906020019080838360005b8381101561021e578082015181840152602081019050610203565b50505050905090810190601f16801561024b5780820380516001836020036101000a031916815260200191505b5087810386528d818151815260200191508051906020019080838360005b83811015610284578082015181840152602081019050610269565b50505050905090810190601f1680156102b15780820380516001836020036101000a031916815260200191505b5087810385528c818151815260200191508051906020019080838360005b838110156102ea5780820151818401526020810190506102cf565b50505050905090810190601f1680156103175780820380516001836020036101000a031916815260200191505b5087810384528b818151815260200191508051906020019080838360005b83811015610350578082015181840152602081019050610335565b50505050905090810190601f16801561037d5780820380516001836020036101000a031916815260200191505b5087810383528a818151815260200191508051906020019080838360005b838110156103b657808201518184015260208101905061039b565b50505050905090810190601f1680156103e35780820380516001836020036101000a031916815260200191505b50878103825288818151815260200191508051906020019080838360005b8381101561041c578082015181840152602081019050610401565b50505050905090810190601f1680156104495780820380516001836020036101000a031916815260200191505b509e50505050505050505050505050505060405180910390f35b34801561046f57600080fd5b506104b26004803603602081101561048657600080fd5b81019080803573ffffffffffffffffffffffffffffffffffffffff169060200190929190505050610de9565b6040518080602001828103825283818151815260200191508051906020019080838360005b838110156104f25780820151818401526020810190506104d7565b50505050905090810190601f16801561051f5780820380516001836020036101000a031916815260200191505b509250505060405180910390f35b34801561053957600080fd5b506108e6600480360360c081101561055057600080fd5b810190808035906020019064010000000081111561056d57600080fd5b82018360208201111561057f57600080fd5b803590602001918460018302840111640100000000831117156105a157600080fd5b91908080601f016020809104026020016040519081016040528093929190818152602001838380828437600081840152601f19601f8201169050808301925050505050505091929192908035906020019064010000000081111561060457600080fd5b82018360208201111561061657600080fd5b8035906020019184600183028401116401000000008311171561063857600080fd5b91908080601f016020809104026020016040519081016040528093929190818152602001838380828437600081840152601f19601f8201169050808301925050505050505091929192908035906020019064010000000081111561069b57600080fd5b8201836020820111156106ad57600080fd5b803590602001918460018302840111640100000000831117156106cf57600080fd5b91908080601f016020809104026020016040519081016040528093929190818152602001838380828437600081840152601f19601f8201169050808301925050505050505091929192908035906020019064010000000081111561073257600080fd5b82018360208201111561074457600080fd5b8035906020019184600183028401116401000000008311171561076657600080fd5b91908080601f016020809104026020016040519081016040528093929190818152602001838380828437600081840152601f19601f820116905080830192505050505050509192919290803590602001906401000000008111156107c957600080fd5b8201836020820111156107db57600080fd5b803590602001918460018302840111640100000000831117156107fd57600080fd5b91908080601f016020809104026020016040519081016040528093929190818152602001838380828437600081840152601f19601f8201169050808301925050505050505091929192908035906020019064010000000081111561086057600080fd5b82018360208201111561087257600080fd5b8035906020019184600183028401116401000000008311171561089457600080fd5b91908080601f016020809104026020016040519081016040528093929190818152602001838380828437600081840152601f19601f820116905080830192505050505050509192919290505050610e99565b005b3480156108f457600080fd5b506108fd610fca565b6040518082815260200191505060405180910390f35b34801561091f57600080fd5b5061094c6004803603602081101561093657600080fd5b8101908080359060200190929190505050610fd0565b005b60036000815480929190600101919050555060008211801561097257506002548211155b151561097d57600080fd5b80600160003373ffffffffffffffffffffffffffffffffffffffff1673ffffffffffffffffffffffffffffffffffffffff16815260200190815260200160002090805190602001906109d0929190610ff8565b506109da82610fd0565b817ffff3c900d938d21d0990d786e819f29b8d05c1ef587b462b939609625b684b1660405160405180910390a25050565b60025481565b6000602052806000526040600020600091509050806000015490806001018054600181600116156101000203166002900480601f016020809104026020016040519081016040528092919081815260200182805460018160011615610100020316600290048015610ac35780601f10610a9857610100808354040283529160200191610ac3565b820191906000526020600020905b815481529060010190602001808311610aa657829003601f168201915b505050505090806002018054600181600116156101000203166002900480601f016020809104026020016040519081016040528092919081815260200182805460018160011615610100020316600290048015610b615780601f10610b3657610100808354040283529160200191610b61565b820191906000526020600020905b815481529060010190602001808311610b4457829003601f168201915b505050505090806003018054600181600116156101000203166002900480601f016020809104026020016040519081016040528092919081815260200182805460018160011615610100020316600290048015610bff5780601f10610bd457610100808354040283529160200191610bff565b820191906000526020600020905b815481529060010190602001808311610be257829003601f168201915b505050505090806004018054600181600116156101000203166002900480601f016020809104026020016040519081016040528092919081815260200182805460018160011615610100020316600290048015610c9d5780601f10610c7257610100808354040283529160200191610c9d565b820191906000526020600020905b815481529060010190602001808311610c8057829003601f168201915b505050505090806005018054600181600116156101000203166002900480601f016020809104026020016040519081016040528092919081815260200182805460018160011615610100020316600290048015610d3b5780601f10610d1057610100808354040283529160200191610d3b565b820191906000526020600020905b815481529060010190602001808311610d1e57829003601f168201915b505050505090806006015490806007018054600181600116156101000203166002900480601f016020809104026020016040519081016040528092919081815260200182805460018160011615610100020316600290048015610ddf5780601f10610db457610100808354040283529160200191610ddf565b820191906000526020600020905b815481529060010190602001808311610dc257829003601f168201915b5050505050905088565b60016020528060005260406000206000915090508054600181600116156101000203166002900480601f016020809104026020016040519081016040528092919081815260200182805460018160011615610100020316600290048015610e915780601f10610e6657610100808354040283529160200191610e91565b820191906000526020600020905b815481529060010190602001808311610e7457829003601f168201915b505050505081565b60026000815480929190600101919050555061010060405190810160405280600254815260200187815260200186815260200185815260200184815260200183815260200160008152602001828152506000806002548152602001908152602001600020600082015181600001556020820151816001019080519060200190610f23929190611078565b506040820151816002019080519060200190610f40929190611078565b506060820151816003019080519060200190610f5d929190611078565b506080820151816004019080519060200190610f7a929190611078565b5060a0820151816005019080519060200190610f97929190611078565b5060c0820151816006015560e0820151816007019080519060200190610fbe929190611078565b50905050505050505050565b60035481565b6000808281526020019081526020016000206006016000815480929190600101919050555050565b828054600181600116156101000203166002900490600052602060002090601f016020900481019282601f1061103957805160ff1916838001178555611067565b82800160010185558215611067579182015b8281111561106657825182559160200191906001019061104b565b5b50905061107491906110f8565b5090565b828054600181600116156101000203166002900490600052602060002090601f016020900481019282601f106110b957805160ff19168380011785556110e7565b828001600101855582156110e7579182015b828111156110e65782518255916020019190600101906110cb565b5b5090506110f491906110f8565b5090565b61111a91905b808211156111165760008160009055506001016110fe565b5090565b9056fea165627a7a7230582031c128ba7e75604c9d18af5ae071e87da74fcb292516fa6364e53d60981ca9b60029",
  "source": "pragma solidity >=0.4.22 <0.6.0;\r\n\r\ncontract Election {\r\n    // Model a Candidate\r\n    struct Candidate {\r\n        uint id;\r\n        string name;\r\n        string vPos;\r\n        string gender;\r\n        string PoS;\r\n        string manifesto;\r\n        uint voteCount;\r\n        string eName;\r\n    }\r\n\r\n    // Store Candidates\r\n    // Fetch Candidate\r\n    mapping(uint => Candidate) public candidates;\r\n    mapping(address => string) public voters;\r\n    // Store Candidates Count\r\n    uint public candidatesCount;\r\n    uint public voteCount;\r\n\r\n    event votedEvent (\r\n        uint indexed _candidateId\r\n    );\r\n\r\n\r\n    constructor () public {\r\n        addCandidate(\"Samuel Kori\", \"President\", \"Male\", \"CS\", \"I am A good boy and I need your vote\", \"Lee Election\");\r\n        addCandidate(\"Cole Baidoe\", \"President\", \"Male\", \"LAW\", \"I am A bad boy and I need your vote\", \"Lee Election\");    \r\n    }\r\n\r\n    function addCandidate (string memory _name, string memory _vPos, string memory _gender, string memory _PoS, string memory _manifesto, string memory _eName) public {\r\n        candidatesCount ++;\r\n        candidates[candidatesCount] = Candidate(candidatesCount, _name, _vPos, _gender, _PoS, _manifesto, 0, _eName);\r\n    }\r\n    \r\n    function incrementVoteCount(uint _candidateId) public{\r\n        // update candidate vote Count\r\n        candidates[_candidateId].voteCount ++;\r\n    }\r\n    \r\n    function vote (uint _candidateId, string memory _pos) public {\r\n        // require that they haven't voted before\r\n        // require(!voters[msg.sender]);\r\n        voteCount ++;\r\n\r\n        // require a valid candidate\r\n        require(_candidateId > 0 && _candidateId <= candidatesCount);\r\n\r\n        // record that voter has voted\r\n        voters[msg.sender] = _pos;\r\n\r\n        // update candidate vote Count\r\n        incrementVoteCount(_candidateId);\r\n\r\n        // trigger voted event\r\n        emit votedEvent(_candidateId);\r\n    }\r\n\r\n}",
  "sourcePath": "C:/Users/LBC/sammy/FYP/E-Voting/contracts/Election.sol",
  "compiler": {
    "name": "solc",
    "version": "0.5.0+commit.1d4f565a.Emscripten.clang"
  },
  "schemaVersion": "3.0.1",
  "updatedAt": "2019-03-15T18:50:45.862Z",
  "devdoc": {
    "methods": {}
  },
  "userdoc": {
    "methods": {}
  }
}