{
  "contractName": "Election",
  "abi": [
    {
      "constant": true,
      "inputs": [],
      "name": "candidatesCount",
      "outputs": [
        {
          "name": "",
          "type": "uint256"
        }
      ],
      "payable": false,
      "stateMutability": "view",
      "type": "function"
    },
    {
      "constant": true,
      "inputs": [
        {
          "name": "",
          "type": "uint256"
        }
      ],
      "name": "candidates",
      "outputs": [
        {
          "name": "id",
          "type": "uint256"
        },
        {
          "name": "name",
          "type": "string"
        },
        {
          "name": "vPos",
          "type": "string"
        },
        {
          "name": "gender",
          "type": "string"
        },
        {
          "name": "PoS",
          "type": "string"
        },
        {
          "name": "manifesto",
          "type": "string"
        },
        {
          "name": "voteCount",
          "type": "uint256"
        },
        {
          "name": "eName",
          "type": "string"
        }
      ],
      "payable": false,
      "stateMutability": "view",
      "type": "function"
    },
    {
      "constant": true,
      "inputs": [
        {
          "name": "",
          "type": "address"
        }
      ],
      "name": "voters",
      "outputs": [
        {
          "name": "",
          "type": "string"
        }
      ],
      "payable": false,
      "stateMutability": "view",
      "type": "function"
    },
    {
      "constant": true,
      "inputs": [],
      "name": "voteCount",
      "outputs": [
        {
          "name": "",
          "type": "uint256"
        }
      ],
      "payable": false,
      "stateMutability": "view",
      "type": "function"
    },
    {
      "inputs": [],
      "payable": false,
      "stateMutability": "nonpayable",
      "type": "constructor"
    },
    {
      "anonymous": false,
      "inputs": [
        {
          "indexed": true,
          "name": "_candidateId",
          "type": "uint256"
        }
      ],
      "name": "votedEvent",
      "type": "event"
    },
    {
      "constant": false,
      "inputs": [
        {
          "name": "_name",
          "type": "string"
        },
        {
          "name": "_vPos",
          "type": "string"
        },
        {
          "name": "_gender",
          "type": "string"
        },
        {
          "name": "_PoS",
          "type": "string"
        },
        {
          "name": "_manifesto",
          "type": "string"
        },
        {
          "name": "_eName",
          "type": "string"
        }
      ],
      "name": "addCandidate",
      "outputs": [],
      "payable": false,
      "stateMutability": "nonpayable",
      "type": "function"
    },
    {
      "constant": false,
      "inputs": [
        {
          "name": "_candidateId",
          "type": "uint256"
        }
      ],
      "name": "incrementVoteCount",
      "outputs": [],
      "payable": false,
      "stateMutability": "nonpayable",
      "type": "function"
    },
    {
      "constant": false,
      "inputs": [
        {
          "name": "_candidateId",
          "type": "uint256"
        },
        {
          "name": "_pos",
          "type": "string"
        }
      ],
      "name": "vote",
      "outputs": [],
      "payable": false,
      "stateMutability": "nonpayable",
      "type": "function"
    }
  ],
  "bytecode": "0x60806040523480156200001157600080fd5b50620001966040805190810160405280600b81526020017f53616d75656c204b6f72690000000000000000000000000000000000000000008152506040805190810160405280600981526020017f507265736964656e7400000000000000000000000000000000000000000000008152506040805190810160405280600481526020017f4d616c65000000000000000000000000000000000000000000000000000000008152506040805190810160405280600281526020017f4353000000000000000000000000000000000000000000000000000000000000815250606060405190810160405280602481526020017f4920616d204120676f6f6420626f7920616e642049206e65656420796f75722081526020017f766f7465000000000000000000000000000000000000000000000000000000008152506040805190810160405280600c81526020017f4c656520456c656374696f6e000000000000000000000000000000000000000081525062000320640100000000026401000000009004565b6200031a6040805190810160405280600b81526020017f436f6c6520426169646f650000000000000000000000000000000000000000008152506040805190810160405280600981526020017f507265736964656e7400000000000000000000000000000000000000000000008152506040805190810160405280600481526020017f4d616c65000000000000000000000000000000000000000000000000000000008152506040805190810160405280600381526020017f4c41570000000000000000000000000000000000000000000000000000000000815250606060405190810160405280602381526020017f4920616d20412062616420626f7920616e642049206e65656420796f7572207681526020017f6f746500000000000000000000000000000000000000000000000000000000008152506040805190810160405280600c81526020017f4c656520456c656374696f6e000000000000000000000000000000000000000081525062000320640100000000026401000000009004565b6200050c565b60026000815480929190600101919050555061010060405190810160405280600254815260200187815260200186815260200185815260200184815260200183815260200160008152602001828152506000806002548152602001908152602001600020600082015181600001556020820151816001019080519060200190620003ac9291906200045d565b506040820151816002019080519060200190620003cb9291906200045d565b506060820151816003019080519060200190620003ea9291906200045d565b506080820151816004019080519060200190620004099291906200045d565b5060a0820151816005019080519060200190620004289291906200045d565b5060c0820151816006015560e0820151816007019080519060200190620004519291906200045d565b50905050505050505050565b828054600181600116156101000203166002900490600052602060002090601f016020900481019282601f10620004a057805160ff1916838001178555620004d1565b82800160010185558215620004d1579182015b82811115620004d0578251825591602001919060010190620004b3565b5b509050620004e09190620004e4565b5090565b6200050991905b8082111562000505576000816000905550600101620004eb565b5090565b90565b610ecc806200051c6000396000f300608060405260043610610083576000357c0100000000000000000000000000000000000000000000000000000000900463ffffffff16806324108475146100885780632d35a8a2146100fb5780633477ee2e14610126578063a3ec138d146103f6578063bbdac323146104b2578063c638407114610679578063f3b9e61c146106a4575b600080fd5b34801561009457600080fd5b506100f960048036038101908080359060200190929190803590602001908201803590602001908080601f01602080910402602001604051908101604052809392919081815260200183838082843782019150505050505091929192905050506106d1565b005b34801561010757600080fd5b5061011061078e565b6040518082815260200191505060405180910390f35b34801561013257600080fd5b5061015160048036038101908080359060200190929190505050610794565b6040518089815260200180602001806020018060200180602001806020018881526020018060200187810387528e818151815260200191508051906020019080838360005b838110156101b1578082015181840152602081019050610196565b50505050905090810190601f1680156101de5780820380516001836020036101000a031916815260200191505b5087810386528d818151815260200191508051906020019080838360005b838110156102175780820151818401526020810190506101fc565b50505050905090810190601f1680156102445780820380516001836020036101000a031916815260200191505b5087810385528c818151815260200191508051906020019080838360005b8381101561027d578082015181840152602081019050610262565b50505050905090810190601f1680156102aa5780820380516001836020036101000a031916815260200191505b5087810384528b818151815260200191508051906020019080838360005b838110156102e35780820151818401526020810190506102c8565b50505050905090810190601f1680156103105780820380516001836020036101000a031916815260200191505b5087810383528a818151815260200191508051906020019080838360005b8381101561034957808201518184015260208101905061032e565b50505050905090810190601f1680156103765780820380516001836020036101000a031916815260200191505b50878103825288818151815260200191508051906020019080838360005b838110156103af578082015181840152602081019050610394565b50505050905090810190601f1680156103dc5780820380516001836020036101000a031916815260200191505b509e50505050505050505050505050505060405180910390f35b34801561040257600080fd5b50610437600480360381019080803573ffffffffffffffffffffffffffffffffffffffff169060200190929190505050610b6c565b6040518080602001828103825283818151815260200191508051906020019080838360005b8381101561047757808201518184015260208101905061045c565b50505050905090810190601f1680156104a45780820380516001836020036101000a031916815260200191505b509250505060405180910390f35b3480156104be57600080fd5b50610677600480360381019080803590602001908201803590602001908080601f0160208091040260200160405190810160405280939291908181526020018383808284378201915050505050509192919290803590602001908201803590602001908080601f0160208091040260200160405190810160405280939291908181526020018383808284378201915050505050509192919290803590602001908201803590602001908080601f0160208091040260200160405190810160405280939291908181526020018383808284378201915050505050509192919290803590602001908201803590602001908080601f0160208091040260200160405190810160405280939291908181526020018383808284378201915050505050509192919290803590602001908201803590602001908080601f0160208091040260200160405190810160405280939291908181526020018383808284378201915050505050509192919290803590602001908201803590602001908080601f0160208091040260200160405190810160405280939291908181526020018383808284378201915050505050509192919290505050610c1c565b005b34801561068557600080fd5b5061068e610d4d565b6040518082815260200191505060405180910390f35b3480156106b057600080fd5b506106cf60048036038101908080359060200190929190505050610d53565b005b6003600081548092919060010191905055506000821180156106f557506002548211155b151561070057600080fd5b80600160003373ffffffffffffffffffffffffffffffffffffffff1673ffffffffffffffffffffffffffffffffffffffff1681526020019081526020016000209080519060200190610753929190610d7b565b5061075d82610d53565b817ffff3c900d938d21d0990d786e819f29b8d05c1ef587b462b939609625b684b1660405160405180910390a25050565b60025481565b6000602052806000526040600020600091509050806000015490806001018054600181600116156101000203166002900480601f0160208091040260200160405190810160405280929190818152602001828054600181600116156101000203166002900480156108465780601f1061081b57610100808354040283529160200191610846565b820191906000526020600020905b81548152906001019060200180831161082957829003601f168201915b505050505090806002018054600181600116156101000203166002900480601f0160208091040260200160405190810160405280929190818152602001828054600181600116156101000203166002900480156108e45780601f106108b9576101008083540402835291602001916108e4565b820191906000526020600020905b8154815290600101906020018083116108c757829003601f168201915b505050505090806003018054600181600116156101000203166002900480601f0160208091040260200160405190810160405280929190818152602001828054600181600116156101000203166002900480156109825780601f1061095757610100808354040283529160200191610982565b820191906000526020600020905b81548152906001019060200180831161096557829003601f168201915b505050505090806004018054600181600116156101000203166002900480601f016020809104026020016040519081016040528092919081815260200182805460018160011615610100020316600290048015610a205780601f106109f557610100808354040283529160200191610a20565b820191906000526020600020905b815481529060010190602001808311610a0357829003601f168201915b505050505090806005018054600181600116156101000203166002900480601f016020809104026020016040519081016040528092919081815260200182805460018160011615610100020316600290048015610abe5780601f10610a9357610100808354040283529160200191610abe565b820191906000526020600020905b815481529060010190602001808311610aa157829003601f168201915b505050505090806006015490806007018054600181600116156101000203166002900480601f016020809104026020016040519081016040528092919081815260200182805460018160011615610100020316600290048015610b625780601f10610b3757610100808354040283529160200191610b62565b820191906000526020600020905b815481529060010190602001808311610b4557829003601f168201915b5050505050905088565b60016020528060005260406000206000915090508054600181600116156101000203166002900480601f016020809104026020016040519081016040528092919081815260200182805460018160011615610100020316600290048015610c145780601f10610be957610100808354040283529160200191610c14565b820191906000526020600020905b815481529060010190602001808311610bf757829003601f168201915b505050505081565b60026000815480929190600101919050555061010060405190810160405280600254815260200187815260200186815260200185815260200184815260200183815260200160008152602001828152506000806002548152602001908152602001600020600082015181600001556020820151816001019080519060200190610ca6929190610dfb565b506040820151816002019080519060200190610cc3929190610dfb565b506060820151816003019080519060200190610ce0929190610dfb565b506080820151816004019080519060200190610cfd929190610dfb565b5060a0820151816005019080519060200190610d1a929190610dfb565b5060c0820151816006015560e0820151816007019080519060200190610d41929190610dfb565b50905050505050505050565b60035481565b6000808281526020019081526020016000206006016000815480929190600101919050555050565b828054600181600116156101000203166002900490600052602060002090601f016020900481019282601f10610dbc57805160ff1916838001178555610dea565b82800160010185558215610dea579182015b82811115610de9578251825591602001919060010190610dce565b5b509050610df79190610e7b565b5090565b828054600181600116156101000203166002900490600052602060002090601f016020900481019282601f10610e3c57805160ff1916838001178555610e6a565b82800160010185558215610e6a579182015b82811115610e69578251825591602001919060010190610e4e565b5b509050610e779190610e7b565b5090565b610e9d91905b80821115610e99576000816000905550600101610e81565b5090565b905600a165627a7a723058202b5d1361590e18816e7bbf578b33fb796cc7ab0e965759226c289c4c191f1c800029",
  "source": "pragma solidity ^0.4.22;\n\ncontract Election {\n    // Model a Candidate\n    struct Candidate {\n        uint id;\n        string name;\n        string vPos;\n        string gender;\n        string PoS;\n        string manifesto;\n        uint voteCount;\n        string eName;\n    }\n\n    // Store Candidates\n    // Fetch Candidate\n    mapping(uint => Candidate) public candidates;\n    mapping(address => string) public voters;\n    // Store Candidates Count\n    uint public candidatesCount;\n    uint public voteCount;\n\n    event votedEvent (\n        uint indexed _candidateId\n    );\n\n\n    constructor () public {\n        addCandidate(\"Samuel Kori\", \"President\", \"Male\", \"CS\", \"I am A good boy and I need your vote\", \"Lee Election\");\n        addCandidate(\"Cole Baidoe\", \"President\", \"Male\", \"LAW\", \"I am A bad boy and I need your vote\", \"Lee Election\");    \n    }\n\n    function addCandidate (string memory _name, string memory _vPos, string memory _gender, string memory _PoS, string memory _manifesto, string memory _eName) public {\n        candidatesCount ++;\n        candidates[candidatesCount] = Candidate(candidatesCount, _name, _vPos, _gender, _PoS, _manifesto, 0, _eName);\n    }\n    \n    function incrementVoteCount(uint _candidateId) public{\n        // update candidate vote Count\n        candidates[_candidateId].voteCount ++;\n    }\n    \n    function vote (uint _candidateId, string memory _pos) public {\n        // require that they haven't voted before\n        // require(!voters[msg.sender]);\n        voteCount ++;\n\n        // require a valid candidate\n        require(_candidateId > 0 && _candidateId <= candidatesCount);\n\n        // record that voter has voted\n        voters[msg.sender] = _pos;\n\n        // update candidate vote Count\n        incrementVoteCount(_candidateId);\n\n        // trigger voted event\n        emit votedEvent(_candidateId);\n    }\n\n}",
  "sourcePath": "/home/kori/Documents/sammy/CS Y2/Part 2/FYP/mywork/dapps/E-Voting/contracts/Election.sol",
  "compiler": {
    "name": "solc",
    "version": "0.4.24+commit.e67f0147.Emscripten.clang"
  },
  "schemaVersion": "2.0.1",
  "updatedAt": "2019-01-12T17:30:58.323Z"
}