{
  "contractName": "Elect",
  "abi": [
    {
      "constant": true,
      "inputs": [],
      "name": "detailsCount",
      "outputs": [
        {
          "name": "",
          "type": "uint256"
        }
      ],
      "payable": false,
      "stateMutability": "view",
      "type": "function"
    },
    {
      "constant": true,
      "inputs": [
        {
          "name": "",
          "type": "uint256"
        }
      ],
      "name": "elections",
      "outputs": [
        {
          "name": "id",
          "type": "uint256"
        },
        {
          "name": "name",
          "type": "string"
        },
        {
          "name": "desc",
          "type": "string"
        },
        {
          "name": "institution",
          "type": "string"
        },
        {
          "name": "creator",
          "type": "address"
        }
      ],
      "payable": false,
      "stateMutability": "view",
      "type": "function"
    },
    {
      "constant": true,
      "inputs": [],
      "name": "electionsCount",
      "outputs": [
        {
          "name": "",
          "type": "uint256"
        }
      ],
      "payable": false,
      "stateMutability": "view",
      "type": "function"
    },
    {
      "constant": true,
      "inputs": [
        {
          "name": "",
          "type": "uint256"
        }
      ],
      "name": "details",
      "outputs": [
        {
          "name": "id",
          "type": "uint256"
        },
        {
          "name": "startDate",
          "type": "string"
        },
        {
          "name": "endDate",
          "type": "string"
        },
        {
          "name": "startTime",
          "type": "string"
        },
        {
          "name": "endTime",
          "type": "string"
        }
      ],
      "payable": false,
      "stateMutability": "view",
      "type": "function"
    },
    {
      "inputs": [],
      "payable": false,
      "stateMutability": "nonpayable",
      "type": "constructor"
    },
    {
      "constant": false,
      "inputs": [
        {
          "name": "_name",
          "type": "string"
        },
        {
          "name": "_desc",
          "type": "string"
        },
        {
          "name": "_inst",
          "type": "string"
        },
        {
          "name": "_sDate",
          "type": "string"
        },
        {
          "name": "_eDate",
          "type": "string"
        },
        {
          "name": "_sTime",
          "type": "string"
        },
        {
          "name": "_eTime",
          "type": "string"
        }
      ],
      "name": "createElection",
      "outputs": [],
      "payable": false,
      "stateMutability": "nonpayable",
      "type": "function"
    }
  ],
  "bytecode": "0x608060405234801561001057600080fd5b50610dfb806100206000396000f30060806040526004361061006d576000357c0100000000000000000000000000000000000000000000000000000000900463ffffffff168063115180e6146100725780632dc120821461009d5780635e6fef01146102aa5780639a74c69514610462578063a005ec7a1461048d575b600080fd5b34801561007e57600080fd5b5061008761067e565b6040518082815260200191505060405180910390f35b3480156100a957600080fd5b506102a8600480360381019080803590602001908201803590602001908080601f0160208091040260200160405190810160405280939291908181526020018383808284378201915050505050509192919290803590602001908201803590602001908080601f0160208091040260200160405190810160405280939291908181526020018383808284378201915050505050509192919290803590602001908201803590602001908080601f0160208091040260200160405190810160405280939291908181526020018383808284378201915050505050509192919290803590602001908201803590602001908080601f0160208091040260200160405190810160405280939291908181526020018383808284378201915050505050509192919290803590602001908201803590602001908080601f0160208091040260200160405190810160405280939291908181526020018383808284378201915050505050509192919290803590602001908201803590602001908080601f0160208091040260200160405190810160405280939291908181526020018383808284378201915050505050509192919290803590602001908201803590602001908080601f0160208091040260200160405190810160405280939291908181526020018383808284378201915050505050509192919290505050610684565b005b3480156102b657600080fd5b506102d560048036038101908080359060200190929190505050610870565b604051808681526020018060200180602001806020018573ffffffffffffffffffffffffffffffffffffffff1673ffffffffffffffffffffffffffffffffffffffff168152602001848103845288818151815260200191508051906020019080838360005b8381101561035557808201518184015260208101905061033a565b50505050905090810190601f1680156103825780820380516001836020036101000a031916815260200191505b50848103835287818151815260200191508051906020019080838360005b838110156103bb5780820151818401526020810190506103a0565b50505050905090810190601f1680156103e85780820380516001836020036101000a031916815260200191505b50848103825286818151815260200191508051906020019080838360005b83811015610421578082015181840152602081019050610406565b50505050905090810190601f16801561044e5780820380516001836020036101000a031916815260200191505b509850505050505050505060405180910390f35b34801561046e57600080fd5b50610477610a8e565b6040518082815260200191505060405180910390f35b34801561049957600080fd5b506104b860048036038101908080359060200190929190505050610a94565b6040518086815260200180602001806020018060200180602001858103855289818151815260200191508051906020019080838360005b8381101561050a5780820151818401526020810190506104ef565b50505050905090810190601f1680156105375780820380516001836020036101000a031916815260200191505b50858103845288818151815260200191508051906020019080838360005b83811015610570578082015181840152602081019050610555565b50505050905090810190601f16801561059d5780820380516001836020036101000a031916815260200191505b50858103835287818151815260200191508051906020019080838360005b838110156105d65780820151818401526020810190506105bb565b50505050905090810190601f1680156106035780820380516001836020036101000a031916815260200191505b50858103825286818151815260200191508051906020019080838360005b8381101561063c578082015181840152602081019050610621565b50505050905090810190601f1680156106695780820380516001836020036101000a031916815260200191505b50995050505050505050505060405180910390f35b60035481565b60026000815480929190600101919050555060036000815480929190600101919050555060a06040519081016040528060025481526020018881526020018781526020018681526020013373ffffffffffffffffffffffffffffffffffffffff168152506000806002548152602001908152602001600020600082015181600001556020820151816001019080519060200190610722929190610d2a565b50604082015181600201908051906020019061073f929190610d2a565b50606082015181600301908051906020019061075c929190610d2a565b5060808201518160040160006101000a81548173ffffffffffffffffffffffffffffffffffffffff021916908373ffffffffffffffffffffffffffffffffffffffff16021790555090505060a06040519081016040528060035481526020018581526020018481526020018381526020018281525060016000600354815260200190815260200160002060008201518160000155602082015181600101908051906020019061080c929190610d2a565b506040820151816002019080519060200190610829929190610d2a565b506060820151816003019080519060200190610846929190610d2a565b506080820151816004019080519060200190610863929190610d2a565b5090505050505050505050565b6000602052806000526040600020600091509050806000015490806001018054600181600116156101000203166002900480601f0160208091040260200160405190810160405280929190818152602001828054600181600116156101000203166002900480156109225780601f106108f757610100808354040283529160200191610922565b820191906000526020600020905b81548152906001019060200180831161090557829003601f168201915b505050505090806002018054600181600116156101000203166002900480601f0160208091040260200160405190810160405280929190818152602001828054600181600116156101000203166002900480156109c05780601f10610995576101008083540402835291602001916109c0565b820191906000526020600020905b8154815290600101906020018083116109a357829003601f168201915b505050505090806003018054600181600116156101000203166002900480601f016020809104026020016040519081016040528092919081815260200182805460018160011615610100020316600290048015610a5e5780601f10610a3357610100808354040283529160200191610a5e565b820191906000526020600020905b815481529060010190602001808311610a4157829003601f168201915b5050505050908060040160009054906101000a900473ffffffffffffffffffffffffffffffffffffffff16905085565b60025481565b6001602052806000526040600020600091509050806000015490806001018054600181600116156101000203166002900480601f016020809104026020016040519081016040528092919081815260200182805460018160011615610100020316600290048015610b465780601f10610b1b57610100808354040283529160200191610b46565b820191906000526020600020905b815481529060010190602001808311610b2957829003601f168201915b505050505090806002018054600181600116156101000203166002900480601f016020809104026020016040519081016040528092919081815260200182805460018160011615610100020316600290048015610be45780601f10610bb957610100808354040283529160200191610be4565b820191906000526020600020905b815481529060010190602001808311610bc757829003601f168201915b505050505090806003018054600181600116156101000203166002900480601f016020809104026020016040519081016040528092919081815260200182805460018160011615610100020316600290048015610c825780601f10610c5757610100808354040283529160200191610c82565b820191906000526020600020905b815481529060010190602001808311610c6557829003601f168201915b505050505090806004018054600181600116156101000203166002900480601f016020809104026020016040519081016040528092919081815260200182805460018160011615610100020316600290048015610d205780601f10610cf557610100808354040283529160200191610d20565b820191906000526020600020905b815481529060010190602001808311610d0357829003601f168201915b5050505050905085565b828054600181600116156101000203166002900490600052602060002090601f016020900481019282601f10610d6b57805160ff1916838001178555610d99565b82800160010185558215610d99579182015b82811115610d98578251825591602001919060010190610d7d565b5b509050610da69190610daa565b5090565b610dcc91905b80821115610dc8576000816000905550600101610db0565b5090565b905600a165627a7a723058209f0239a648e0a1f7fa15416a1ce5d167874233b9d177f10c281c0d176ca57baf0029",
  "source": "pragma solidity ^0.4.22;\n\ncontract Elect {\n    // Model a Candidate\n    struct Election {\n        uint id;\n        string name;\n        string desc;\n        string institution;\n        address creator;\n    }\n\n    mapping(uint => Election) public elections;\n    \n    struct electionDetails {\n        uint id;\n        string startDate;\n        string endDate;\n        string startTime;\n        string endTime;\n    }\n\n    mapping(uint => electionDetails) public details;\n    \n    uint public electionsCount;\n    uint public detailsCount;\n\n\n    constructor () public {\n        \n    }\n\n    function createElection (string memory _name, string memory _desc, string memory _inst, string memory _sDate, string memory _eDate, string memory _sTime, string memory _eTime) public {\n        electionsCount ++;\n        detailsCount ++;\n        elections[electionsCount] = Election(electionsCount, _name, _desc, _inst, msg.sender);\n        details[detailsCount] = electionDetails(detailsCount, _sDate, _eDate, _sTime, _eTime);\n    }\n\n}",
  "sourcePath": "/home/kori/Documents/sammy/CS Y2/Part 2/FYP/mywork/dapps/E-Voting/contracts/Elect.sol",
  "compiler": {
    "name": "solc",
    "version": "0.4.24+commit.e67f0147.Emscripten.clang"
  },
  "schemaVersion": "2.0.1",
  "updatedAt": "2019-01-10T12:50:37.293Z"
}