{
  "contractName": "Election",
  "abi": [
    {
      "constant": true,
      "inputs": [],
      "name": "candidatesCount",
      "outputs": [
        {
          "name": "",
          "type": "uint256"
        }
      ],
      "payable": false,
      "stateMutability": "view",
      "type": "function"
    },
    {
      "constant": true,
      "inputs": [
        {
          "name": "",
          "type": "uint256"
        }
      ],
      "name": "candidates",
      "outputs": [
        {
          "name": "id",
          "type": "uint256"
        },
        {
          "name": "name",
          "type": "string"
        },
        {
          "name": "vPos",
          "type": "string"
        },
        {
          "name": "gender",
          "type": "string"
        },
        {
          "name": "PoS",
          "type": "string"
        },
        {
          "name": "manifesto",
          "type": "string"
        },
        {
          "name": "voteCount",
          "type": "uint256"
        },
        {
          "name": "eName",
          "type": "string"
        }
      ],
      "payable": false,
      "stateMutability": "view",
      "type": "function"
    },
    {
      "inputs": [],
      "payable": false,
      "stateMutability": "nonpayable",
      "type": "constructor"
    },
    {
      "constant": false,
      "inputs": [
        {
          "name": "_name",
          "type": "string"
        },
        {
          "name": "_vPos",
          "type": "string"
        },
        {
          "name": "_gender",
          "type": "string"
        },
        {
          "name": "_PoS",
          "type": "string"
        },
        {
          "name": "_manifesto",
          "type": "string"
        },
        {
          "name": "_eName",
          "type": "string"
        }
      ],
      "name": "addCandidate",
      "outputs": [],
      "payable": false,
      "stateMutability": "nonpayable",
      "type": "function"
    },
    {
      "constant": false,
      "inputs": [
        {
          "name": "_candidateId",
          "type": "uint256"
        }
      ],
      "name": "incrementVoteCount",
      "outputs": [],
      "payable": false,
      "stateMutability": "nonpayable",
      "type": "function"
    }
  ],
  "bytecode": "0x60806040523480156200001157600080fd5b50620001966040805190810160405280600b81526020017f53616d75656c204b6f72690000000000000000000000000000000000000000008152506040805190810160405280600981526020017f507265736964656e7400000000000000000000000000000000000000000000008152506040805190810160405280600481526020017f4d616c65000000000000000000000000000000000000000000000000000000008152506040805190810160405280601081526020017f436f6d707574657220536369656e636500000000000000000000000000000000815250606060405190810160405280602481526020017f4920616d204120676f6f6420626f7920616e642049206e65656420796f75722081526020017f766f7465000000000000000000000000000000000000000000000000000000008152506040805190810160405280600c81526020017f4c656520456c656374696f6e000000000000000000000000000000000000000081525062000320640100000000026401000000009004565b6200031a6040805190810160405280600b81526020017f436f6c6520426169646f650000000000000000000000000000000000000000008152506040805190810160405280600981526020017f507265736964656e7400000000000000000000000000000000000000000000008152506040805190810160405280600481526020017f4d616c65000000000000000000000000000000000000000000000000000000008152506040805190810160405280600381526020017f4c61770000000000000000000000000000000000000000000000000000000000815250606060405190810160405280602381526020017f4920616d20412062616420626f7920616e642049206e65656420796f7572207681526020017f6f746500000000000000000000000000000000000000000000000000000000008152506040805190810160405280600c81526020017f4c656520456c656374696f6e000000000000000000000000000000000000000081525062000320640100000000026401000000009004565b6200050c565b60016000815480929190600101919050555061010060405190810160405280600154815260200187815260200186815260200185815260200184815260200183815260200160008152602001828152506000806001548152602001908152602001600020600082015181600001556020820151816001019080519060200190620003ac9291906200045d565b506040820151816002019080519060200190620003cb9291906200045d565b506060820151816003019080519060200190620003ea9291906200045d565b506080820151816004019080519060200190620004099291906200045d565b5060a0820151816005019080519060200190620004289291906200045d565b5060c0820151816006015560e0820151816007019080519060200190620004519291906200045d565b50905050505050505050565b828054600181600116156101000203166002900490600052602060002090601f016020900481019282601f10620004a057805160ff1916838001178555620004d1565b82800160010185558215620004d1579182015b82811115620004d0578251825591602001919060010190620004b3565b5b509050620004e09190620004e4565b5090565b6200050991905b8082111562000505576000816000905550600101620004eb565b5090565b90565b610b5e806200051c6000396000f300608060405260043610610062576000357c0100000000000000000000000000000000000000000000000000000000900463ffffffff1680632d35a8a2146100675780633477ee2e14610092578063bbdac32314610362578063f3b9e61c14610529575b600080fd5b34801561007357600080fd5b5061007c610556565b6040518082815260200191505060405180910390f35b34801561009e57600080fd5b506100bd6004803603810190808035906020019092919050505061055c565b6040518089815260200180602001806020018060200180602001806020018881526020018060200187810387528e818151815260200191508051906020019080838360005b8381101561011d578082015181840152602081019050610102565b50505050905090810190601f16801561014a5780820380516001836020036101000a031916815260200191505b5087810386528d818151815260200191508051906020019080838360005b83811015610183578082015181840152602081019050610168565b50505050905090810190601f1680156101b05780820380516001836020036101000a031916815260200191505b5087810385528c818151815260200191508051906020019080838360005b838110156101e95780820151818401526020810190506101ce565b50505050905090810190601f1680156102165780820380516001836020036101000a031916815260200191505b5087810384528b818151815260200191508051906020019080838360005b8381101561024f578082015181840152602081019050610234565b50505050905090810190601f16801561027c5780820380516001836020036101000a031916815260200191505b5087810383528a818151815260200191508051906020019080838360005b838110156102b557808201518184015260208101905061029a565b50505050905090810190601f1680156102e25780820380516001836020036101000a031916815260200191505b50878103825288818151815260200191508051906020019080838360005b8381101561031b578082015181840152602081019050610300565b50505050905090810190601f1680156103485780820380516001836020036101000a031916815260200191505b509e50505050505050505050505050505060405180910390f35b34801561036e57600080fd5b50610527600480360381019080803590602001908201803590602001908080601f0160208091040260200160405190810160405280939291908181526020018383808284378201915050505050509192919290803590602001908201803590602001908080601f0160208091040260200160405190810160405280939291908181526020018383808284378201915050505050509192919290803590602001908201803590602001908080601f0160208091040260200160405190810160405280939291908181526020018383808284378201915050505050509192919290803590602001908201803590602001908080601f0160208091040260200160405190810160405280939291908181526020018383808284378201915050505050509192919290803590602001908201803590602001908080601f0160208091040260200160405190810160405280939291908181526020018383808284378201915050505050509192919290803590602001908201803590602001908080601f0160208091040260200160405190810160405280939291908181526020018383808284378201915050505050509192919290505050610934565b005b34801561053557600080fd5b5061055460048036038101908080359060200190929190505050610a65565b005b60015481565b6000602052806000526040600020600091509050806000015490806001018054600181600116156101000203166002900480601f01602080910402602001604051908101604052809291908181526020018280546001816001161561010002031660029004801561060e5780601f106105e35761010080835404028352916020019161060e565b820191906000526020600020905b8154815290600101906020018083116105f157829003601f168201915b505050505090806002018054600181600116156101000203166002900480601f0160208091040260200160405190810160405280929190818152602001828054600181600116156101000203166002900480156106ac5780601f10610681576101008083540402835291602001916106ac565b820191906000526020600020905b81548152906001019060200180831161068f57829003601f168201915b505050505090806003018054600181600116156101000203166002900480601f01602080910402602001604051908101604052809291908181526020018280546001816001161561010002031660029004801561074a5780601f1061071f5761010080835404028352916020019161074a565b820191906000526020600020905b81548152906001019060200180831161072d57829003601f168201915b505050505090806004018054600181600116156101000203166002900480601f0160208091040260200160405190810160405280929190818152602001828054600181600116156101000203166002900480156107e85780601f106107bd576101008083540402835291602001916107e8565b820191906000526020600020905b8154815290600101906020018083116107cb57829003601f168201915b505050505090806005018054600181600116156101000203166002900480601f0160208091040260200160405190810160405280929190818152602001828054600181600116156101000203166002900480156108865780601f1061085b57610100808354040283529160200191610886565b820191906000526020600020905b81548152906001019060200180831161086957829003601f168201915b505050505090806006015490806007018054600181600116156101000203166002900480601f01602080910402602001604051908101604052809291908181526020018280546001816001161561010002031660029004801561092a5780601f106108ff5761010080835404028352916020019161092a565b820191906000526020600020905b81548152906001019060200180831161090d57829003601f168201915b5050505050905088565b600160008154809291906001019190505550610100604051908101604052806001548152602001878152602001868152602001858152602001848152602001838152602001600081526020018281525060008060015481526020019081526020016000206000820151816000015560208201518160010190805190602001906109be929190610a8d565b5060408201518160020190805190602001906109db929190610a8d565b5060608201518160030190805190602001906109f8929190610a8d565b506080820151816004019080519060200190610a15929190610a8d565b5060a0820151816005019080519060200190610a32929190610a8d565b5060c0820151816006015560e0820151816007019080519060200190610a59929190610a8d565b50905050505050505050565b6000808281526020019081526020016000206006016000815480929190600101919050555050565b828054600181600116156101000203166002900490600052602060002090601f016020900481019282601f10610ace57805160ff1916838001178555610afc565b82800160010185558215610afc579182015b82811115610afb578251825591602001919060010190610ae0565b5b509050610b099190610b0d565b5090565b610b2f91905b80821115610b2b576000816000905550600101610b13565b5090565b905600a165627a7a723058203a5986c0a92dbac5a12752ab6d1e0b4cffe4d24246c79a81196160c2cbe767250029",
  "source": "pragma solidity ^0.4.22;\n\ncontract Election {\n    // Model a Candidate\n    struct Candidate {\n        uint id;\n        string name;\n        string vPos;\n        string gender;\n        string PoS;\n        string manifesto;\n        uint voteCount;\n        string eName;\n    }\n\n    // Store Candidates\n    // Fetch Candidate\n    mapping(uint => Candidate) public candidates;\n    // Store Candidates Count\n    uint public candidatesCount;\n\n\n    constructor () public {\n        addCandidate(\"Samuel Kori\", \"President\", \"Male\", \"Computer Science\", \"I am A good boy and I need your vote\", \"Lee Election\");\n        addCandidate(\"Cole Baidoe\", \"President\", \"Male\", \"Law\", \"I am A bad boy and I need your vote\", \"Lee Election\");    \n    }\n\n    function addCandidate (string memory _name, string memory _vPos, string memory _gender, string memory _PoS, string memory _manifesto, string memory _eName) public {\n        candidatesCount ++;\n        candidates[candidatesCount] = Candidate(candidatesCount, _name, _vPos, _gender, _PoS, _manifesto, 0, _eName);\n    }\n    \n    function incrementVoteCount(uint _candidateId) public{\n        // update candidate vote Count\n        candidates[_candidateId].voteCount ++;\n    }\n\n}",
  "sourcePath": "/home/kori/Documents/sammy/CS Y2/Part 2/FYP/mywork/dapps/E-Voting/contracts/Election.sol",
  "compiler": {
    "name": "solc",
    "version": "0.4.24+commit.e67f0147.Emscripten.clang"
  },
  "schemaVersion": "2.0.1",
  "updatedAt": "2019-01-10T12:50:37.297Z"
}