{
  "contractName": "Register",
  "abi": [
    {
      "constant": true,
      "inputs": [],
      "name": "adminCount",
      "outputs": [
        {
          "name": "",
          "type": "uint256"
        }
      ],
      "payable": false,
      "stateMutability": "view",
      "type": "function"
    },
    {
      "constant": true,
      "inputs": [
        {
          "name": "",
          "type": "address"
        }
      ],
      "name": "admins",
      "outputs": [
        {
          "name": "id",
          "type": "uint256"
        },
        {
          "name": "AdminAdd",
          "type": "address"
        },
        {
          "name": "email",
          "type": "string"
        },
        {
          "name": "username",
          "type": "string"
        },
        {
          "name": "secretToken",
          "type": "string"
        }
      ],
      "payable": false,
      "stateMutability": "view",
      "type": "function"
    },
    {
      "constant": true,
      "inputs": [
        {
          "name": "",
          "type": "address"
        }
      ],
      "name": "logins",
      "outputs": [
        {
          "name": "",
          "type": "bool"
        }
      ],
      "payable": false,
      "stateMutability": "view",
      "type": "function"
    },
    {
      "inputs": [],
      "payable": false,
      "stateMutability": "nonpayable",
      "type": "constructor"
    },
    {
      "constant": false,
      "inputs": [
        {
          "name": "_email",
          "type": "string"
        },
        {
          "name": "_username",
          "type": "string"
        },
        {
          "name": "_secretToken",
          "type": "string"
        }
      ],
      "name": "registerAdmin",
      "outputs": [],
      "payable": false,
      "stateMutability": "nonpayable",
      "type": "function"
    },
    {
      "constant": true,
      "inputs": [
        {
          "name": "_username",
          "type": "string"
        },
        {
          "name": "_secretToken",
          "type": "string"
        }
      ],
      "name": "loginAdmin",
      "outputs": [
        {
          "name": "",
          "type": "string"
        }
      ],
      "payable": false,
      "stateMutability": "view",
      "type": "function"
    }
  ],
  "bytecode": "0x608060405234801561001057600080fd5b50610d9d806100206000396000f30060806040526004361061006d576000357c0100000000000000000000000000000000000000000000000000000000900463ffffffff168063068cc440146100725780632b7832b314610167578063429b62e514610192578063901d032c14610360578063a54cb4c814610488575b600080fd5b34801561007e57600080fd5b50610165600480360381019080803590602001908201803590602001908080601f0160208091040260200160405190810160405280939291908181526020018383808284378201915050505050509192919290803590602001908201803590602001908080601f0160208091040260200160405190810160405280939291908181526020018383808284378201915050505050509192919290803590602001908201803590602001908080601f01602080910402602001604051908101604052809392919081815260200183838082843782019150505050505091929192905050506104e3565b005b34801561017357600080fd5b5061017c610623565b6040518082815260200191505060405180910390f35b34801561019e57600080fd5b506101d3600480360381019080803573ffffffffffffffffffffffffffffffffffffffff169060200190929190505050610629565b604051808681526020018573ffffffffffffffffffffffffffffffffffffffff1673ffffffffffffffffffffffffffffffffffffffff168152602001806020018060200180602001848103845287818151815260200191508051906020019080838360005b83811015610253578082015181840152602081019050610238565b50505050905090810190601f1680156102805780820380516001836020036101000a031916815260200191505b50848103835286818151815260200191508051906020019080838360005b838110156102b957808201518184015260208101905061029e565b50505050905090810190601f1680156102e65780820380516001836020036101000a031916815260200191505b50848103825285818151815260200191508051906020019080838360005b8381101561031f578082015181840152602081019050610304565b50505050905090810190601f16801561034c5780820380516001836020036101000a031916815260200191505b509850505050505050505060405180910390f35b34801561036c57600080fd5b5061040d600480360381019080803590602001908201803590602001908080601f0160208091040260200160405190810160405280939291908181526020018383808284378201915050505050509192919290803590602001908201803590602001908080601f0160208091040260200160405190810160405280939291908181526020018383808284378201915050505050509192919290505050610847565b6040518080602001828103825283818151815260200191508051906020019080838360005b8381101561044d578082015181840152602081019050610432565b50505050905090810190601f16801561047a5780820380516001836020036101000a031916815260200191505b509250505060405180910390f35b34801561049457600080fd5b506104c9600480360381019080803573ffffffffffffffffffffffffffffffffffffffff169060200190929190505050610cac565b604051808215151515815260200191505060405180910390f35b60036000815480929190600101919050555060a06040519081016040528060035481526020013373ffffffffffffffffffffffffffffffffffffffff168152602001848152602001838152602001828152506000803373ffffffffffffffffffffffffffffffffffffffff1673ffffffffffffffffffffffffffffffffffffffff1681526020019081526020016000206000820151816000015560208201518160010160006101000a81548173ffffffffffffffffffffffffffffffffffffffff021916908373ffffffffffffffffffffffffffffffffffffffff16021790555060408201518160020190805190602001906105e0929190610ccc565b5060608201518160030190805190602001906105fd929190610ccc565b50608082015181600401908051906020019061061a929190610ccc565b50905050505050565b60035481565b60006020528060005260406000206000915090508060000154908060010160009054906101000a900473ffffffffffffffffffffffffffffffffffffffff1690806002018054600181600116156101000203166002900480601f0160208091040260200160405190810160405280929190818152602001828054600181600116156101000203166002900480156107015780601f106106d657610100808354040283529160200191610701565b820191906000526020600020905b8154815290600101906020018083116106e457829003601f168201915b505050505090806003018054600181600116156101000203166002900480601f01602080910402602001604051908101604052809291908181526020018280546001816001161561010002031660029004801561079f5780601f106107745761010080835404028352916020019161079f565b820191906000526020600020905b81548152906001019060200180831161078257829003601f168201915b505050505090806004018054600181600116156101000203166002900480601f01602080910402602001604051908101604052809291908181526020018280546001816001161561010002031660029004801561083d5780601f106108125761010080835404028352916020019161083d565b820191906000526020600020905b81548152906001019060200180831161082057829003601f168201915b5050505050905085565b60606000803373ffffffffffffffffffffffffffffffffffffffff1673ffffffffffffffffffffffffffffffffffffffff16815260200190815260200160002060040160405160200180828054600181600116156101000203166002900480156108e85780601f106108c65761010080835404028352918201916108e8565b820191906000526020600020905b8154815290600101906020018083116108d4575b50509150506040516020818303038152906040526040518082805190602001908083835b602083101515610931578051825260208201915060208101905060208303925061090c565b6001836020036101000a038019825116818451168082178552505050505050905001915050604051809103902060019004826040516020018082805190602001908083835b60208310151561099b5780518252602082019150602081019050602083039250610976565b6001836020036101000a0380198251168184511680821785525050505050509050019150506040516020818303038152906040526040518082805190602001908083835b602083101515610a0457805182526020820191506020810190506020830392506109df565b6001836020036101000a038019825116818451168082178552505050505050905001915050604051809103902060019004148015610c2b57506000803373ffffffffffffffffffffffffffffffffffffffff1673ffffffffffffffffffffffffffffffffffffffff1681526020019081526020016000206003016040516020018082805460018160011615610100020316600290048015610adc5780601f10610aba576101008083540402835291820191610adc565b820191906000526020600020905b815481529060010190602001808311610ac8575b50509150506040516020818303038152906040526040518082805190602001908083835b602083101515610b255780518252602082019150602081019050602083039250610b00565b6001836020036101000a038019825116818451168082178552505050505050905001915050604051809103902060019004836040516020018082805190602001908083835b602083101515610b8f5780518252602082019150602081019050602083039250610b6a565b6001836020036101000a0380198251168184511680821785525050505050509050019150506040516020818303038152906040526040518082805190602001908083835b602083101515610bf85780518252602082019150602081019050602083039250610bd3565b6001836020036101000a038019825116818451168082178552505050505050905001915050604051809103902060019004145b15610c6d576040805190810160405280600481526020017f74727565000000000000000000000000000000000000000000000000000000008152509050610ca6565b6040805190810160405280600581526020017f66616c736500000000000000000000000000000000000000000000000000000081525090505b92915050565b60016020528060005260406000206000915054906101000a900460ff1681565b828054600181600116156101000203166002900490600052602060002090601f016020900481019282601f10610d0d57805160ff1916838001178555610d3b565b82800160010185558215610d3b579182015b82811115610d3a578251825591602001919060010190610d1f565b5b509050610d489190610d4c565b5090565b610d6e91905b80821115610d6a576000816000905550600101610d52565b5090565b905600a165627a7a723058207d311d34d466dcb732c5f9ad91fba28b964d1b664d7ce50a26e6a31ad9fb20920029",
  "source": "pragma solidity ^0.4.22;\n\ncontract Register {\n  struct Admin{\n    uint id;\n    address AdminAdd;\n    string email;\n    string username;\n    string secretToken;\n  }\n\n  mapping(address => Admin) public admins;\n  mapping(address => bool) public logins;\n  \n  address[] adminAccounts;\n\n  uint public adminCount;\n\n  constructor() public {\n\n  }\n\n  function registerAdmin(string memory _email, string memory _username, string memory _secretToken) public {\n    adminCount ++;\n    admins[msg.sender] = Admin(adminCount,msg.sender, _email, _username, _secretToken);\n  }\n  \n  function loginAdmin(string memory _username, string memory _secretToken) view public returns(string memory){\n    if(uint(keccak256(abi.encodePacked(_secretToken))) == uint(keccak256(abi.encodePacked(admins[msg.sender].secretToken))) && uint(keccak256(abi.encodePacked(_username))) == uint(keccak256(abi.encodePacked(admins[msg.sender].username)))) {\n        return \"true\";\n    }else{\n        return \"false\";\n    }\n  }\n}\n",
  "sourcePath": "/home/kori/Documents/sammy/CS Y2/Part 2/FYP/mywork/dapps/E-Voting/contracts/Register.sol",
  "compiler": {
    "name": "solc",
    "version": "0.4.24+commit.e67f0147.Emscripten.clang"
  },
  "schemaVersion": "2.0.1",
  "updatedAt": "2019-01-12T17:30:58.310Z"
}