{
  "contractName": "Voter",
  "abi": [
    {
      "constant": true,
      "inputs": [
        {
          "name": "",
          "type": "address"
        }
      ],
      "name": "voters",
      "outputs": [
        {
          "name": "",
          "type": "bool"
        }
      ],
      "payable": false,
      "stateMutability": "view",
      "type": "function"
    },
    {
      "anonymous": false,
      "inputs": [
        {
          "indexed": true,
          "name": "_candidateId",
          "type": "uint256"
        }
      ],
      "name": "votedEvent",
      "type": "event"
    },
    {
      "constant": false,
      "inputs": [
        {
          "name": "_address",
          "type": "address"
        }
      ],
      "name": "setAddress",
      "outputs": [],
      "payable": false,
      "stateMutability": "nonpayable",
      "type": "function"
    },
    {
      "constant": false,
      "inputs": [
        {
          "name": "_candidateId",
          "type": "uint256"
        }
      ],
      "name": "vote",
      "outputs": [],
      "payable": false,
      "stateMutability": "nonpayable",
      "type": "function"
    }
  ],
  "bytecode": "0x608060405234801561001057600080fd5b5061041a806100206000396000f300608060405260043610610057576000357c0100000000000000000000000000000000000000000000000000000000900463ffffffff1680630121b93f1461005c578063a3ec138d14610089578063e30081a0146100e4575b600080fd5b34801561006857600080fd5b5061008760048036038101908080359060200190929190505050610127565b005b34801561009557600080fd5b506100ca600480360381019080803573ffffffffffffffffffffffffffffffffffffffff16906020019092919050505061038a565b604051808215151515815260200191505060405180910390f35b3480156100f057600080fd5b50610125600480360381019080803573ffffffffffffffffffffffffffffffffffffffff1690602001909291905050506103aa565b005b6000803373ffffffffffffffffffffffffffffffffffffffff1673ffffffffffffffffffffffffffffffffffffffff16815260200190815260200160002060009054906101000a900460ff1615151561017f57600080fd5b60008111801561024f5750600160009054906101000a900473ffffffffffffffffffffffffffffffffffffffff1673ffffffffffffffffffffffffffffffffffffffff16632d35a8a26040518163ffffffff167c0100000000000000000000000000000000000000000000000000000000028152600401602060405180830381600087803b15801561021057600080fd5b505af1158015610224573d6000803e3d6000fd5b505050506040513d602081101561023a57600080fd5b81019080805190602001909291905050508111155b151561025a57600080fd5b60016000803373ffffffffffffffffffffffffffffffffffffffff1673ffffffffffffffffffffffffffffffffffffffff16815260200190815260200160002060006101000a81548160ff021916908315150217905550600160009054906101000a900473ffffffffffffffffffffffffffffffffffffffff1673ffffffffffffffffffffffffffffffffffffffff1663f3b9e61c826040518263ffffffff167c010000000000000000000000000000000000000000000000000000000002815260040180828152602001915050600060405180830381600087803b15801561034257600080fd5b505af1158015610356573d6000803e3d6000fd5b50505050807ffff3c900d938d21d0990d786e819f29b8d05c1ef587b462b939609625b684b1660405160405180910390a250565b60006020528060005260406000206000915054906101000a900460ff1681565b80600160006101000a81548173ffffffffffffffffffffffffffffffffffffffff021916908373ffffffffffffffffffffffffffffffffffffffff160217905550505600a165627a7a7230582005ba1a488fa44411d08a4206bf85530b53d993bae84cc0c3d8e029ee69ddfd0c0029",
  "source": "pragma solidity ^0.4.22;\nimport \"./Election.sol\";\n\ncontract Voter {\n    // Store accounts that have voted\n    mapping(address => bool) public voters;\n\n    // voted event\n    event votedEvent (\n        uint indexed _candidateId\n    );\n    \n    Election elect;\n    \n    function setAddress (address _address) public{\n        elect = Election(_address);\n    }\n\n\n    function vote (uint _candidateId) public {\n        // require that they haven't voted before\n        require(!voters[msg.sender]);\n\n        // require a valid candidate\n        require(_candidateId > 0 && _candidateId <= elect.candidatesCount());\n\n        // record that voter has voted\n        voters[msg.sender] = true;\n\n        // update candidate vote Count\n        elect.incrementVoteCount(_candidateId);\n\n        // trigger voted event\n        emit votedEvent(_candidateId);\n    }\n}",
  "sourcePath": "/home/kori/Documents/sammy/CS Y2/Part 2/FYP/mywork/dapps/E-Voting/contracts/Voter.sol",
  "compiler": {
    "name": "solc",
    "version": "0.4.24+commit.e67f0147.Emscripten.clang"
  },
  "schemaVersion": "2.0.1",
  "updatedAt": "2019-01-10T12:50:37.287Z"
}